{
  "_format": "hh-sol-artifact-1",
  "contractName": "Swirl",
  "sourceName": "contracts/Swirl.sol",
  "abi": [
    {
      "inputs": [
        {
          "internalType": "address",
          "name": "_wallet",
          "type": "address"
        }
      ],
      "name": "createAdvertiser",
      "outputs": [],
      "stateMutability": "nonpayable",
      "type": "function"
    },
    {
      "inputs": [
        {
          "internalType": "uint256",
          "name": "_advertiserId",
          "type": "uint256"
        },
        {
          "internalType": "uint256",
          "name": "_balance",
          "type": "uint256"
        }
      ],
      "name": "createCampaign",
      "outputs": [],
      "stateMutability": "nonpayable",
      "type": "function"
    },
    {
      "inputs": [
        {
          "internalType": "address",
          "name": "_wallet",
          "type": "address"
        }
      ],
      "name": "createPublisher",
      "outputs": [],
      "stateMutability": "nonpayable",
      "type": "function"
    },
    {
      "inputs": [
        {
          "internalType": "uint256",
          "name": "_advertiserId",
          "type": "uint256"
        }
      ],
      "name": "deposit",
      "outputs": [],
      "stateMutability": "payable",
      "type": "function"
    },
    {
      "inputs": [
        {
          "internalType": "uint256",
          "name": "_advertiserId",
          "type": "uint256"
        }
      ],
      "name": "getAdvertiser",
      "outputs": [
        {
          "internalType": "uint256",
          "name": "",
          "type": "uint256"
        },
        {
          "internalType": "address",
          "name": "",
          "type": "address"
        },
        {
          "internalType": "uint256",
          "name": "",
          "type": "uint256"
        }
      ],
      "stateMutability": "view",
      "type": "function"
    },
    {
      "inputs": [],
      "name": "getAllAdvertisers",
      "outputs": [
        {
          "internalType": "uint256[]",
          "name": "",
          "type": "uint256[]"
        },
        {
          "internalType": "address[]",
          "name": "",
          "type": "address[]"
        }
      ],
      "stateMutability": "view",
      "type": "function"
    },
    {
      "inputs": [],
      "name": "getAllCampaigns",
      "outputs": [
        {
          "internalType": "uint256[]",
          "name": "",
          "type": "uint256[]"
        }
      ],
      "stateMutability": "view",
      "type": "function"
    },
    {
      "inputs": [],
      "name": "getAllPublishers",
      "outputs": [
        {
          "internalType": "uint256[]",
          "name": "",
          "type": "uint256[]"
        }
      ],
      "stateMutability": "view",
      "type": "function"
    },
    {
      "inputs": [
        {
          "internalType": "uint256",
          "name": "_campaignId",
          "type": "uint256"
        }
      ],
      "name": "getCampaign",
      "outputs": [
        {
          "internalType": "uint256",
          "name": "",
          "type": "uint256"
        },
        {
          "internalType": "uint256",
          "name": "",
          "type": "uint256"
        },
        {
          "internalType": "uint256",
          "name": "",
          "type": "uint256"
        }
      ],
      "stateMutability": "view",
      "type": "function"
    },
    {
      "inputs": [
        {
          "internalType": "uint256",
          "name": "_publisherId",
          "type": "uint256"
        }
      ],
      "name": "getPublisher",
      "outputs": [
        {
          "internalType": "uint256",
          "name": "",
          "type": "uint256"
        },
        {
          "internalType": "address",
          "name": "",
          "type": "address"
        }
      ],
      "stateMutability": "view",
      "type": "function"
    },
    {
      "inputs": [
        {
          "internalType": "uint256",
          "name": "_publisherId",
          "type": "uint256"
        },
        {
          "internalType": "uint256",
          "name": "_campaignId",
          "type": "uint256"
        }
      ],
      "name": "withdraw",
      "outputs": [],
      "stateMutability": "nonpayable",
      "type": "function"
    }
  ],
  "bytecode": "0x608060405234801561001057600080fd5b50611732806100206000396000f3fe60806040526004361061009c5760003560e01c80635598f8cc116100645780635598f8cc146101865780636d321f7a146101c557806386cdf604146101f1578063969cb7c31461021c5780639d043e291461025a578063b6b55f25146102835761009c565b80631afd3e11146100a157806322502268146100ca5780633bb9025d146100f3578063441a3e70146101325780634c96f2811461015b575b600080fd5b3480156100ad57600080fd5b506100c860048036038101906100c39190610f14565b61029f565b005b3480156100d657600080fd5b506100f160048036038101906100ec9190610f77565b610360565b005b3480156100ff57600080fd5b5061011a60048036038101906101159190610fb7565b6104e3565b60405161012993929190611002565b60405180910390f35b34801561013e57600080fd5b5061015960048036038101906101549190610f77565b6105d5565b005b34801561016757600080fd5b50610170610847565b60405161017d91906110f7565b60405180910390f35b34801561019257600080fd5b506101ad60048036038101906101a89190610fb7565b610905565b6040516101bc93929190611119565b60405180910390f35b3480156101d157600080fd5b506101da6109ac565b6040516101e892919061120e565b60405180910390f35b3480156101fd57600080fd5b50610206610b4d565b60405161021391906110f7565b60405180910390f35b34801561022857600080fd5b50610243600480360381019061023e9190610fb7565b610c0b565b604051610251929190611245565b60405180910390f35b34801561026657600080fd5b50610281600480360381019061027c9190610f14565b610ce9565b005b61029d60048036038101906102989190610fb7565b610d9a565b005b600360008154809291906102b29061129d565b9190505550604051806060016040528060035481526020018273ffffffffffffffffffffffffffffffffffffffff168152602001600081525060008060035481526020019081526020016000206000820151816000015560208201518160010160006101000a81548173ffffffffffffffffffffffffffffffffffffffff021916908373ffffffffffffffffffffffffffffffffffffffff1602179055506040820151816002015590505050565b6003548211156103a5576040517f08c379a000000000000000000000000000000000000000000000000000000000815260040161039c90611342565b60405180910390fd5b3373ffffffffffffffffffffffffffffffffffffffff1660008084815260200190815260200160002060010160009054906101000a900473ffffffffffffffffffffffffffffffffffffffff1673ffffffffffffffffffffffffffffffffffffffff1614610448576040517f08c379a000000000000000000000000000000000000000000000000000000000815260040161043f906113d4565b60405180910390fd5b6004600081548092919061045b9061129d565b919050555060405180606001604052806004548152602001838152602001828152506001600060045481526020019081526020016000206000820151816000015560208201518160010155604082015181600201559050508060008084815260200190815260200160002060020160008282546104d891906113f4565b925050819055505050565b600080600060035484111561052d576040517f08c379a000000000000000000000000000000000000000000000000000000000815260040161052490611342565b60405180910390fd5b6000806000868152602001908152602001600020604051806060016040529081600082015481526020016001820160009054906101000a900473ffffffffffffffffffffffffffffffffffffffff1673ffffffffffffffffffffffffffffffffffffffff1673ffffffffffffffffffffffffffffffffffffffff1681526020016002820154815250509050806000015181602001518260400151935093509350509193909250565b60055482111561061a576040517f08c379a000000000000000000000000000000000000000000000000000000000815260040161061190611474565b60405180910390fd5b60045481111561065f576040517f08c379a0000000000000000000000000000000000000000000000000000000008152600401610656906114e0565b60405180910390fd5b3373ffffffffffffffffffffffffffffffffffffffff166002600084815260200190815260200160002060010160009054906101000a900473ffffffffffffffffffffffffffffffffffffffff1673ffffffffffffffffffffffffffffffffffffffff1614610703576040517f08c379a00000000000000000000000000000000000000000000000000000000081526004016106fa9061154c565b60405180910390fd5b60006001600083815260200190815260200160002060020154905060008111610761576040517f08c379a0000000000000000000000000000000000000000000000000000000008152600401610758906115b8565b60405180910390fd5b60006001600084815260200190815260200160002060020181905550806000806001600086815260200190815260200160002060010154815260200190815260200160002060020160008282546107b891906115d8565b9250508190555060006002600085815260200190815260200160002060010160009054906101000a900473ffffffffffffffffffffffffffffffffffffffff1690508073ffffffffffffffffffffffffffffffffffffffff166108fc839081150290604051600060405180830381858888f19350505050158015610840573d6000803e3d6000fd5b5050505050565b6060600060055467ffffffffffffffff8111156108675761086661160c565b5b6040519080825280602002602001820160405280156108955781602001602082028036833780820191505090505b5090506000600190505b60055481116108fd576002600082815260200190815260200160002060000154826001836108cd91906115d8565b815181106108de576108dd61163b565b5b60200260200101818152505080806108f59061129d565b91505061089f565b508091505090565b600080600060045484111561094f576040517f08c379a0000000000000000000000000000000000000000000000000000000008152600401610946906114e0565b60405180910390fd5b60006001600086815260200190815260200160002060405180606001604052908160008201548152602001600182015481526020016002820154815250509050806000015181602001518260400151935093509350509193909250565b606080600060035467ffffffffffffffff8111156109cd576109cc61160c565b5b6040519080825280602002602001820160405280156109fb5781602001602082028036833780820191505090505b509050600060035467ffffffffffffffff811115610a1c57610a1b61160c565b5b604051908082528060200260200182016040528015610a4a5781602001602082028036833780820191505090505b5090506000600190505b6003548111610b40576000808281526020019081526020016000206000015483600183610a8191906115d8565b81518110610a9257610a9161163b565b5b60200260200101818152505060008082815260200190815260200160002060010160009054906101000a900473ffffffffffffffffffffffffffffffffffffffff1682600183610ae291906115d8565b81518110610af357610af261163b565b5b602002602001019073ffffffffffffffffffffffffffffffffffffffff16908173ffffffffffffffffffffffffffffffffffffffff16815250508080610b389061129d565b915050610a54565b5081819350935050509091565b6060600060045467ffffffffffffffff811115610b6d57610b6c61160c565b5b604051908082528060200260200182016040528015610b9b5781602001602082028036833780820191505090505b5090506000600190505b6004548111610c0357600160008281526020019081526020016000206000015482600183610bd391906115d8565b81518110610be457610be361163b565b5b6020026020010181815250508080610bfb9061129d565b915050610ba5565b508091505090565b600080600554831115610c53576040517f08c379a0000000000000000000000000000000000000000000000000000000008152600401610c4a90611474565b60405180910390fd5b600060026000858152602001908152602001600020604051806040016040529081600082015481526020016001820160009054906101000a900473ffffffffffffffffffffffffffffffffffffffff1673ffffffffffffffffffffffffffffffffffffffff1673ffffffffffffffffffffffffffffffffffffffff16815250509050806000015181602001519250925050915091565b60056000815480929190610cfc9061129d565b9190505550604051806040016040528060055481526020018273ffffffffffffffffffffffffffffffffffffffff168152506002600060055481526020019081526020016000206000820151816000015560208201518160010160006101000a81548173ffffffffffffffffffffffffffffffffffffffff021916908373ffffffffffffffffffffffffffffffffffffffff16021790555090505050565b600354811115610ddf576040517f08c379a0000000000000000000000000000000000000000000000000000000008152600401610dd690611342565b60405180910390fd5b3373ffffffffffffffffffffffffffffffffffffffff1660008083815260200190815260200160002060010160009054906101000a900473ffffffffffffffffffffffffffffffffffffffff1673ffffffffffffffffffffffffffffffffffffffff1614610e82576040517f08c379a0000000000000000000000000000000000000000000000000000000008152600401610e79906116dc565b60405180910390fd5b346000808381526020019081526020016000206002016000828254610ea791906113f4565b9250508190555050565b600080fd5b600073ffffffffffffffffffffffffffffffffffffffff82169050919050565b6000610ee182610eb6565b9050919050565b610ef181610ed6565b8114610efc57600080fd5b50565b600081359050610f0e81610ee8565b92915050565b600060208284031215610f2a57610f29610eb1565b5b6000610f3884828501610eff565b91505092915050565b6000819050919050565b610f5481610f41565b8114610f5f57600080fd5b50565b600081359050610f7181610f4b565b92915050565b60008060408385031215610f8e57610f8d610eb1565b5b6000610f9c85828601610f62565b9250506020610fad85828601610f62565b9150509250929050565b600060208284031215610fcd57610fcc610eb1565b5b6000610fdb84828501610f62565b91505092915050565b610fed81610f41565b82525050565b610ffc81610ed6565b82525050565b60006060820190506110176000830186610fe4565b6110246020830185610ff3565b6110316040830184610fe4565b949350505050565b600081519050919050565b600082825260208201905092915050565b6000819050602082019050919050565b61106e81610f41565b82525050565b60006110808383611065565b60208301905092915050565b6000602082019050919050565b60006110a482611039565b6110ae8185611044565b93506110b983611055565b8060005b838110156110ea5781516110d18882611074565b97506110dc8361108c565b9250506001810190506110bd565b5085935050505092915050565b600060208201905081810360008301526111118184611099565b905092915050565b600060608201905061112e6000830186610fe4565b61113b6020830185610fe4565b6111486040830184610fe4565b949350505050565b600081519050919050565b600082825260208201905092915050565b6000819050602082019050919050565b61118581610ed6565b82525050565b6000611197838361117c565b60208301905092915050565b6000602082019050919050565b60006111bb82611150565b6111c5818561115b565b93506111d08361116c565b8060005b838110156112015781516111e8888261118b565b97506111f3836111a3565b9250506001810190506111d4565b5085935050505092915050565b600060408201905081810360008301526112288185611099565b9050818103602083015261123c81846111b0565b90509392505050565b600060408201905061125a6000830185610fe4565b6112676020830184610ff3565b9392505050565b7f4e487b7100000000000000000000000000000000000000000000000000000000600052601160045260246000fd5b60006112a882610f41565b91507fffffffffffffffffffffffffffffffffffffffffffffffffffffffffffffffff82036112da576112d961126e565b5b600182019050919050565b600082825260208201905092915050565b7f4164766572746973657220646f6573206e6f7420657869737400000000000000600082015250565b600061132c6019836112e5565b9150611337826112f6565b602082019050919050565b6000602082019050818103600083015261135b8161131f565b9050919050565b7f4f6e6c7920616476657274697365722063616e206372656174652063616d706160008201527f69676e0000000000000000000000000000000000000000000000000000000000602082015250565b60006113be6023836112e5565b91506113c982611362565b604082019050919050565b600060208201905081810360008301526113ed816113b1565b9050919050565b60006113ff82610f41565b915061140a83610f41565b92508282019050808211156114225761142161126e565b5b92915050565b7f5075626c697368657220646f6573206e6f742065786973740000000000000000600082015250565b600061145e6018836112e5565b915061146982611428565b602082019050919050565b6000602082019050818103600083015261148d81611451565b9050919050565b7f43616d706169676e20646f6573206e6f74206578697374000000000000000000600082015250565b60006114ca6017836112e5565b91506114d582611494565b602082019050919050565b600060208201905081810360008301526114f9816114bd565b9050919050565b7f4f6e6c79207075626c69736865722063616e2077697468647261770000000000600082015250565b6000611536601b836112e5565b915061154182611500565b602082019050919050565b6000602082019050818103600083015261156581611529565b9050919050565b7f43616d706169676e2062616c616e6365206973207a65726f0000000000000000600082015250565b60006115a26018836112e5565b91506115ad8261156c565b602082019050919050565b600060208201905081810360008301526115d181611595565b9050919050565b60006115e382610f41565b91506115ee83610f41565b92508282039050818111156116065761160561126e565b5b92915050565b7f4e487b7100000000000000000000000000000000000000000000000000000000600052604160045260246000fd5b7f4e487b7100000000000000000000000000000000000000000000000000000000600052603260045260246000fd5b7f4f6e6c7920616476657274697365722063616e206465706f7369742066756e6460008201527f7300000000000000000000000000000000000000000000000000000000000000602082015250565b60006116c66021836112e5565b91506116d18261166a565b604082019050919050565b600060208201905081810360008301526116f5816116b9565b905091905056fea26469706673582212202e5737814bdc567155b96222af99f197a9d73524f60ce282d6f6d9e6255f361664736f6c63430008120033",
  "linkReferences": {},
  "deployedLinkReferences": {}
}